:020000040800F2
:10000000E06500209D010008953A0008252F0008B2
:10001000913A00080D080008ED3D000800000000BE
:100020000000000000000000000000009D3A0008F1
:10003000A908000800000000993A0008A13A000849
:10004000B7010008B7010008B7010008B7010008B0
:10005000B7010008B7010008B7010008B7010008A0
:10006000B7010008B7010008B7010008B701000890
:10007000B7010008B7010008B7010008B701000880
:10008000B7010008B7010008B7010008B701000870
:10009000B7010008B7010008B7010008B701000860
:1000A000B7010008613B0008B7010008B70100086C
:1000B000B7010008B7010008AD3B0008B701000810
:1000C000B7010008B7010008B7010008B701000830
:1000D000B7010008B7010008B7010008B701000820
:1000E000B7010008B7010008B7010008B701000810
:1000F000B7010008B7010008B7010008B701000800
:10010000B7010008B7010008B7010008B7010008EF
:10011000B7010008B7010008B7010008B7010008DF
:10012000110800085D080008B7010008B7010008C1
:10013000B7010008B7010008B7010008B7010008BF
:10014000B7010008B7010008B7010008B7010008AF
:10015000B7010008B7010008B7010008B70100089F
:10016000B7010008B7010008B7010008B70100088F
:10017000B7010008B7010008B7010008000000003F
:10018000B7010008B7010008DFF80CD000F074FADE
:100190000048004759B90008E0650020064880473C
:1001A00006480047FEE7FEE7FEE7FEE7FEE7FEE75C
:1001B000FEE7FEE7FEE7FEE74D3B00088901000889
:1001C0002DE9F05F0546002092469B46884606468C
:1001D000814640241BE0284641464746224600F01F
:1001E000CCF953465A46C01A914110D311461846CD
:1001F000224600F0B3F92D1A67EB01084F4622465C
:100200000120002100F0AAF917EB00094E41201E41
:10021000A4F10104DFDC484631462A464346BDE8E6
:10022000F09F40EA01039B0703D009E008C9121FB1
:1002300008C0042AFAD203E011F8013B00F8013BA0
:10024000521EF9D27047D2B201E000F8012B491ECC
:10025000FBD270470022F6E710B513460A46044663
:100260001946FFF7F0FF204610BD2DE9FE4F8046EE
:1002700081EA0300C00F0C46009021F0004123F0FA
:100280000045B8EB0200A94105D240462146904600
:100290001C460B46024623F00040104347D0270D72
:1002A000C7F30A00C3F30A510290401A0190402894
:1002B0006BDAC3F3130040F4801B0098924620B120
:1002C0000023D2EB030A63EB0B0B01985946C0F1F4
:1002D0004002504600F042F906460D465046594647
:1002E000019A00F05AF910EB08006141002487EAF6
:1002F000115284EAE7731A4340D0009A62B3019A1C
:10030000012A4FEA075215DC001B61EB02014FF096
:10031000004202EA0752CDE90042001C41F580117B
:1003200032462B4600F05AF903B0BDE8F08F404644
:100330002146F9E7001B61EB0201001C41F5801327
:1003400000185B412018A2F5001747EB030140EAB3
:10035000D570B6196D4111E06D084FEA360645EAD1
:10036000C0754FEA0752001B61EB0201001C41F50A
:10037000801149084FEA30000019514132462B469E
:1003800003B0BDE8F04F00F01AB900980122400018
:100390000023D0EB020263EBE073009821464FEAA2
:1003A000E074B8EB000061EB0401E9E783F000437F
:1003B0005BE781F0004158E72DE9FE4F81EA030435
:1003C00004F0004421F0004100944FF0000B23F0B2
:1003D000004350EA01045ED052EA03045BD0C3F349
:1003E0000A54C1F30A552C44A4F2F3340194A0FB3F
:1003F0000254C1F3130141F48011C3F3130343F416
:10040000801301FB024400FB034E840A970A44EA6E
:10041000815447EA8357A4FB076802958D0A05FBC0
:1004200007854FEA932C04FB0C542705029D4FEAE5
:10043000065847EA1637B5EB08056EEB070C870E32
:10044000920E47EA811742EA8312A7FB0201B6EB3C
:100450000B0164EB00042B0D43EA0C335E1844EBF4
:100460001C50DA465146E7FB0201C5F313044FEA7C
:100470000B3343EA14534FEA0432019C43EA060368
:10048000A4F10C040294009CCDE900B400F0A6F89D
:1004900003B0BDE8F08F00200146F9E730B5041E37
:1004A00071F1000404DB4FF00044404264EB0101B1
:1004B000141E73F1000405DB1C464FF0004352424A
:1004C00063EB0403101A8B4101D3012030BD0020DF
:1004D00030BD0EB540F2334102910021CDE900114B
:1004E0000A460B4600F07AF803B000BD70B5C1F3C0
:1004F0000A5201F000450024C1F3130140F2FF331A
:1005000041F480119A4201DA002070BD40F2334379
:100510009A42A2F2334203DC524200F02EF800E08D
:1005200090402C43F1D0404270BDC1F30A5210B547
:10053000C1F3130140F2FF3341F480119A4201DA12
:10054000002010BD40F233439A42A2F2334203DC52
:10055000524200F012F810BD904010BD202A04DB7A
:10056000203A00FA02F1002070479140C2F12003C6
:1005700020FA03F3194390407047202A04DB203A05
:1005800021FA02F00021704721FA02F3D040C2F1B3
:1005900020029140084319467047202A06DBCB17FA
:1005A000203A41FA02F043EAE07306E041FA02F32E
:1005B000D040C2F12002914008431946704710B55F
:1005C000141E73F1000408DA401C41F10001921876
:1005D0005B411A4301D120F0010010BD2DE9F04D1F
:1005E00092469B4611B1B1FA81F202E0B0FA80F274
:1005F00020329046FFF7B2FF04460F4640EA0A0059
:1006000041EA0B0153465A46084313D0114653EAB8
:10061000010019D0C8F140025046FFF7AEFF054671
:100620000E46504659464246FFF798FF084305D00C
:10063000012004E020463946BDE8F08D0020054346
:1006400046EAE0762C4337430A986305E40AA0EBB8
:1006500008000022FD0A44EA47540A3002D500206F
:100660000146E9E7010510196941DDE9084500196E
:100670006941BDE8F04DA2E71CB509480090094862
:1006800001900546009C06E0E06840F0010394E814
:10069000070098471034AC42F6D3FFF779FD00000D
:1006A000F4ED000814EE000870B584B01C46154641
:1006B00003280E4609D840F20C01C2F200010A18C4
:1006C00000200121002303F093FB49F6FF20CEF226
:1006D00032202118013081424FEAD50038BF4FF453
:1006E0007A742C284FF000004FF0100188BF0025CD
:1006F000B0EB962F18BF722641EA16218DF80E1026
:100700008DF80D000DF10D020620032101238DF857
:100710000F6003F06DFB2846FFF7DBFE9FED140B27
:1007200053EC102BFFF748FEFFF7E0FE40BAADF8A0
:100730000B000DF10B0205200221012303F058FBF1
:100740002046FFF7C6FE9FED0C0B53EC102BFFF776
:1007500033FEFFF7EAFE00BACDF807000DF10702FD
:1007600004200421012303F043FB04B070BD00BF4B
:10077000000000000080963F95D626E80B2E314001
:100780000146806B036C026C13F0500F08D0D20648
:1007900048BF00F021BB806BC26C0846104700BF09
:1007A00042F40071016401688A6812F0405F01D070
:1007B00000F00EBB027E002AFAD1CA6A12F4700F52
:1007C00002D08A685205F3D44A6822F020024A60B7
:1007D000016C21F480710164016CC90448BF00F010
:1007E000F7BA016C41F00101016400F0F1BA0000B8
:1007F000806B40210164416C41F00401416400F0D0
:10080000EBBA0000806B00F0E5BA0000FEE70000E4
:1008100010B540F62414C2F20004207840B141F231
:100820001430C2F20000BDE8104000F0EDBD00BF82
:1008300041F2CC5040F22411C2F20000C2F2000199
:100840004FF40062FFF7EDFC0120207041F21430FC
:10085000C2F20000BDE8104000F0D6BD10B541F274
:100860002614C2F20004207840B141F27430C2F282
:100870000000BDE8104000F0C7BD00BF41F6CC50FD
:1008800040F62611C2F20000C2F200014FF40062ED
:10089000FFF7C7FC0120207041F27430C2F2000063
:1008A000BDE8104000F0B0BD70470000000000003F
:1008B00070B584B040F2B000C2F20000008803F0CE
:1008C00091FC4FF6FF744F2040F2A5114FF4457292
:1008D00040F2A513009403F08BFD4F2040F2A511C8
:1008E0004F225223009403F083FD4FF4457040F2F1
:1008F000A51140F20E324FF4D173009403F078FD4D
:100900004FF4457040F2A51140F20E324FF4D4730B
:10091000009403F06DFD4F2052214C225823009487
:1009200003F066FD4F20522152225823009403F019
:100930005FFDDC2040F2A51105224FF6FF7303F0A6
:10094000ABFD4FF4B47040F2A51105224FF6FF73D2
:1009500003F0A2FD4FF4FA7040F2A51105224FF604
:10096000FF7303F099FD4FF4207040F2A5110522AA
:100970004FF6FF7303F090FD4A204FF4B971052242
:100980004FF6FF7303F0E4FC4A204FF4A0710522F8
:100990004FF6FF7303F0DCFC4A204FF48771052209
:1009A0004FF6FF7303F0D4FC4A20DC2105224FF6FA
:1009B000FF7303F0CDFC4A20AA2105224FF6FF73F6
:1009C00003F0C6FC4A20782105224FF6FF7303F09E
:1009D000BFFC40F2AC06C2F200063488102541206C
:1009E00040F2AF1100220323CDE900540AF0ECFEDF
:1009F0003488CD2040F2AF1164220323CDE90054A6
:100A00000AF0E2FE348840F2591040F2AF11C822D9
:100A10000323CDE900540AF0D7FE348840F2E510F4
:100A200040F2AF114FF496720323CDE900540AF05F
:100A3000CBFE348840F2712040F2AF114FF4C872FF
:100A40000323CDE900540AF0BFFE348840F2FD20B4
:100A500040F2AF114FF4FA720323CDE900540AF0CB
:100A6000B3FE308842A1CDE901104FF43C704FF441
:100A7000E4711422142300950AF030FF34889FEDAE
:100A80002E0B282040F29D1101220123CDE90054B4
:100A90000AF00AFD34889FED2A0B282040F26B11E2
:100AA00001220123CDE900540AF0FEFC34889FEDB9
:100AB000260B282040F2391101220123CDE90054F0
:100AC0000AF0F2FC34889FED220B282040F2071137
:100AD00001220123CDE900540AF0E6FC34889FEDA1
:100AE0001E0B2820D52101220123CDE900540AF054
:100AF000DBFC34889FED1A0B2820A321012201235F
:100B0000CDE900540AF0D0FC34889FED170B282063
:100B1000712101220123CDE900540AF0C5FC368879
:100B200014A0CDE90050132058211422142302965A
:100B30000AF0D4FE04B070BD000000000000000008
:100B4000000000000000E03F000000000000F03F57
:100B5000000000000000F83F00000000000000401E
:100B600000000000000004400000000000000840F9
:100B70006B487A005600000072B600BFFEE7000026
:100B8000B3F5804F03461DD1B0B553F822C0002005
:100B9000CCF6F0700CEA000E91E83100D1F818C0E4
:100BA00040EA0E0040EA0410C96840EA052040EA25
:100BB0000C0040EA0141BDE8B040002043F822109B
:100BC000704700BF6FF07041002043F8221070475B
:100BD0002DE9F04F83B00B68024650F8230001F175
:100BE000240B20F0010042F82300D1E902C0D1E932
:100BF00000E301908869D1E9049A0290C86BD1E9B9
:100C0000077600909BE83008D1F8308052F82E002B
:100C10008021CFF6F0710840BCF1080F08BF43F007
:100C200040030199194341EA090141EA0A013943A4
:100C300031432143294341EA0B01029B41EA080168
:100C40001943009B1943084340EA0C01002042F875
:100C50002E1003B0BDE8F08F70B5D1E900C3D1E923
:100C600002E44CEA031343EA0E23D1E9045643EAB3
:100C700004430024CFF6F074896904EB05552B4337
:100C8000FE36194341EA066100EB82020020516002
:100C900070BD000070B581B00022009290F83C2039
:100CA000012A03D1022001B070BD00BFD1F800E0DD
:100CB00001221FFA8EFC4FEA4C0380F83C200EEB19
:100CC0004E0213FA8EF31024BEF1090F88BFA3F170
:100CD0001E0288BF0C24036807251E59954026EA8A
:100CE00005051D518D681E5905FA02F232431A514D
:100CF0004968062906D801EB81014A1F194651F8B7
:100D0000345F0EE00C2901EB810105D8A1F123022B
:100D1000194651F8305F04E0A1F14102194651F83B
:100D20002C5F1F24944025EA04040C600CFA02F2A4
:100D30000C6842F2043CC4F2010C2243ACF541744D
:100D4000A3420A603ED1BEF1120F07D1DCF80010B9
:100D500041F48001CCF8001034E000BF2EF0010116
:100D600010292FD1DCF80010BEF1100F41F4000162
:100D7000CCF8001026D140F29801C2F200010968B7
:100D80004DF68362C4F21B32A1FB0212910C01EBFF
:100D90008101490000910099A1B1009901390091A8
:100DA000009979B1009901390091009951B10099E8
:100DB00001390091009929B10099013900910099F8
:100DC0000029EAD1002180F83C10002001B070BD5C
:100DD000704700007047000070470000002804BF03
:100DE0000120704710B5016C00293DD0016CC90687
:100DF00045D4016C41F202129143023142F20432B5
:100E00000164C4F20102116821F4403111601368D9
:100E100090E812102343D0F810E013604A680124D0
:100E200022F480724A604A68C0F6007442EA0E22D8
:100E30004A604A6822F040724A604A6842EA0C02FC
:100E40004A608A6822F400628A60C2688B681A432A
:100E50008A60826A8B68A24223F070638B608B6821
:100E600010D123F0405216E0044600F065F8204609
:100E70000021616484F83C10016CC906B9D50121D8
:100E800053E000BF1A438A608A6822F040528A60A9
:100E9000C26A8B681A438A608A6822F002028A60FA
:100EA0008A68037E90F8204042EA43028A604A68DA
:100EB00084B142F400624A604A684EF2000322F4B0
:100EC00060424A60426ACFF6FF734C6803EB4232DD
:100ED000224301E022F400624A60CA6A40F2000C38
:100EE00022F47002CA62C3694269CFF6F07CCC6A10
:100EF0000CEB03532343CB628B6823F400738B60AA
:100F000090F830308C6844EA43238B608B6823F47C
:100F100080638B608B6843EA82228A60002141648F
:100F2000026C012363F301020264002280F83C207A
:100F3000BDE810400846704770B586B004460068AA
:100F400042F20021C4F2010100268842CDE9046684
:100F5000CDE90266019671D042F20011C4F201019E
:100F6000884243D042F20001C4F20101884240F0BD
:100F7000AE8043F630000096C4F20200416941F4AD
:100F800080714161416901F480710091009900967E
:100F9000016841F001010160006801A900F0010051
:100FA00000900098022001900320CDE90206002065
:100FB000C4F2020000F022FC41F2143546F2104067
:100FC000C2F20005C4F202004FF48061C5E90006D8
:100FD00005F110004FF400624FF400534FF4807C91
:100FE000C5E9026680E80E1066E000BF002043F607
:100FF00030010090C4F202014A6942F400724A6171
:101000004A6902F400720092009A00900A6842F065
:1010100004020A60096801F00401009100990721A7
:1010200001910321CDE902100020C4F2020000F575
:10103000006001A900F0E2FB06B070BD43F630008D
:101040000096C4F20200416941F480614161416946
:1010500001F48061009100990096016841F001015E
:101060000160006801A900F00100009000980420D0
:1010700001900320CDE902060020C4F2020000F036
:10108000BDFB46F21040C4F2020041F27435183044
:10109000C2F200054FF080614FF480624FF40063AC
:1010A00085E8430005F114004FF4005C4FF4807EA6
:1010B000C5E9036280E8085028462E626E6200F09F
:1010C00085FA002818BFFFF757FDA563AC6306B08B
:1010D00070BD0000B0B582B00023019390F83C30A1
:1010E000012B03D1022002B0B0BD00BF8E46012308
:1010F000016880F83C308B689446DB0729D18B6807
:101100004DF6836443F001038B6040F29803C2F212
:1011100000031B68C4F21B34A3FB0434A30C03EBD1
:1011200043030193019BA3B1019B013B0193019BED
:101130007BB1019B013B0193019B53B1019B013B9F
:101140000193019B2BB1019B013B0193019B002B60
:10115000EAD18B68DB0503D58B6823F480738B6041
:101160008C68036CE4070BD143F01001016400F1BB
:101170004401002001220B681A430A6002B0B0BD8E
:1011800040F20174A34303F5807303644B685B056D
:1011900004D5036C012464F30D330364046C002351
:1011A000E4044FF0000444BF446C24F0060444649B
:1011B00080F83C30836B40F2817440F60502C0F643
:1011C0000004C0F60002C3E90F4240F2F172C0F61B
:1011D0000002DA646FF022020A604A6842F20434C4
:1011E00042F080624A608A68054642F480728A60F2
:1011F0004C31184672466346C4F2010400F098FA76
:1012000022682968D20605D0A4F54172914225D002
:1012100002B0B0BD42F20002C4F20102914215D008
:1012200042F20022C4F2010291420CD042F20012BA
:10123000C4F201029142EBD12268D20606D0A4F595
:1012400082729142E4D12268D206E1D451F8082F8B
:1012500012F0405FDCD14FF080428CE74FF6045231
:10126000CFF6FF72A25812F0405FD1D108314FF093
:10127000804280E700284FF0010318BF002901D108
:10128000184670474379012B4FF00203F8D010B590
:101290000371036802F0100ED3F800C0D1E9001406
:1012A00040F6FE7202FA0EF221432CEA020201FA23
:1012B0000EF111431960C0211A6801FA0EF122EAF9
:1012C000010119600121002301714371BDE8104043
:1012D00018467047002804BF01207047017941B9C2
:1012E00010B500214171044600F00CF82046BDE81D
:1012F00010400221017100210122016102710846A2
:101300007047000080B586B047F200410068C4F223
:101310000001002288420592CDE903220292019247
:1013200002D006B080BD00BF43F630000092C4F288
:101330000200036943F000530361036903F00053A3
:101340000093009B0092036843F001030360006870
:1013500000F0010000900098102001900320CDE9DA
:10136000020201F5C63001A900F048FA06B080BDBE
:1013700081B04FF0000CCDF800C088B100680029A2
:1013800000904FF01400DDF800C008BF08201044A2
:101390006044009000980360002001B0704700BFD7
:1013A000012001B070470000002804BF01207047F1
:1013B0004279012A4FF0020224D010B5027102686E
:1013C00001F0100C4FF0010E14680EFA0CF32343D9
:1013D0001360136841B103F470113C2303FA0CF35A
:1013E000994209D1022104E003F03C013C2903D1D8
:1013F000012153681943516001210022017142719A
:10140000BDE8104010467047F0B581B00021009152
:1014100040F29801C2F200010B68D0E9166148F26F
:10142000B51537680822C1F64E358A403A42A3FB0B
:1014300005350CD003681C68640708D51C6824F0C7
:1014400004041C60B260426D42F001024265012258
:101450008A403A4208D003685B691B0604D5B26033
:10146000426D42F00202426504228A403A4208D0AC
:1014700003681B689B0704D5B260426D42F004020A
:10148000426510228A403A4219D001680B681B0756
:1014900015D5B2600B680A685B0309D4D20509D47C
:1014A0000A6822F008020A60016C29B907E000BF4F
:1014B000110341D4016C11B1044688472046C26D26
:1014C000202101FA02F33B4243D001680F68FF0676
:1014D0003FD5B36090F835700B68052F1CD123F011
:1014E00016030B604B6923F080034B61036C0BB94F
:1014F000836C1BB10B6823F008030B603F21914004
:10150000B160012180F83510016D0022002980F8BA
:10151000342054D158E000BF0A685B0310D4D205D0
:1015200012D40A6822F010020A60012180F83510F6
:10153000002180F8341007E0816C0029BCD1BEE79F
:10154000110301D4416C00E0C16B11B1044688471E
:101550002046416DC1B3416DC9072ED0052180F8E9
:1015600035100168AA0A0B6823F001030B60009B89
:101570000133934200931AD80B68DB0717D0009B06
:1015800001339342009312D80B68DB070FD0009B06
:101590000133934200930AD80B68DB0707D0009B06
:1015A00001339342009302D80B68DB07DFD101219E
:1015B00080F83510002180F83410C16C21B101B0E1
:1015C000BDE8F040084700BF01B0F0BD2DE9F04193
:1015D000044600F0E9F9ECB10546022084F8350034
:1015E0000020216884F83400086820F001000860B9
:1015F00021680868C00711D000F0D6F9401B052803
:10160000F6D9032520230320636584F83550BDE80F
:10161000F08100BF0120BDE8F08100BF086848F2FA
:101620003F02CFF21002D4E9013500EA020C04F1C6
:101630000C0898E8C10143EA0C032B431843D4E992
:10164000072E304338431043626A40EA0E00042AF2
:1016500040EA08031CD1206BD4E90A2E40EA0E00B0
:10166000184308604869BEF1000F20F0030040EA0B
:10167000020040F0040C11D0B8F5005F36D0B8F18C
:10168000000F45D1022A46D0012A3BD032B942E0B0
:101690000B60486920F0070040EA020C01F0F800F6
:1016A0004AF6AB221038CAF6AA22A0FB02231A0976
:1016B0004EF6EA53C1F814C0C0F600039A5C40F23B
:1016C000FF335F284FF03F0021EA030100FA02F0E8
:1016D00088BF0431C4E91612886000230125002068
:1016E000636584F83550BDE8F08100BF032AD5D882
:1016F000012540230120DFE802F0030E030500BFAF
:1017000082E700BFAEF1C070B0FA80F0400904E09B
:10171000032A04D3C2D1CEF300600028BED0012535
:1017200040230120636584F83550BDE8F081000056
:1017300090F834C0BCF1010F04BF0220704770B5AF
:101740004FF0010C80F834C0D0F858E090F835C064
:10175000BCF1010F38D14FF0020C80F835C04FF0CA
:10176000000CC0F854C0D0F800C08468056CC06D8F
:10177000DCF80060402C26F48026CCF80060CCF821
:1017800004300B4604BF13460A463F2101FA00F01D
:10179000CCF80830CCF80C20CEF80800DCF80000BB
:1017A00040F01600CCF800002DB1DCF8000040F04D
:1017B0000800CCF80000DCF8000040F00100CCF894
:1017C0000000002070BD00BF002180F8341002200E
:1017D00070BD0000B0B5044600F0E6F8054640F2E2
:1017E0000400C2F200000078611C18BF044400BF6E
:1017F00000F0DAF8401BA042FAD3B0BD2DE9F04F5B
:1018000083B000F1200200F13E4741F6004500920E
:1018100007F1FF77C4F2020508224FEAB726A84273
:1018200008BF072200254FF000084FF00009072EDF
:1018300038BF4FEAB72201920AE000BF09F101095F
:1018400008F10208B9F1100F05F1040500F0A280BB
:101850000F68012202FA09FE17EA0E0AEED0D1F84B
:1018600004C003220CF003077E1E02FA08F4012EC6
:101870006FEA040B12D88468CE6804EA0B0406FAF7
:1018800008F634438460446824EA0E06CCF300145E
:1018900004FA09F42643466004E000BF032F01D197
:1018A00003271EE0C6688C6806EA0B0604FA08F4F3
:1018B0002643022FC66014D16FF00302009E02EA95
:1018C000590756F807C005F01C040F220B69A24007
:1018D0002CEA0202A3401A43F251D1F804C00CF0E2
:1018E0000307026807FA08F302EA0B021A431CF422
:1018F000403F0260A2D0002243F644030292C4F2A9
:1019000002031A6843F6004442F480421A601A68DF
:10191000C4F2010402F480420292029A29F0030206
:101920004FF6084C2244CFF6FF7C52F80C3005F0FD
:101930000C070F26BE40B343019E06FA07F73B4350
:1019400042F80C30A2684B6842EA0A0743F60C4C96
:10195000DE0258BF22EA0A07A760C4F2010CDCF8D5
:1019600000209E0242EA0A0758BF22EA0A07CCF882
:10197000007062689E0342EA0A0758BF22EA0A071B
:1019800067602268DB0342EA0A0758BF22EA0A07B7
:10199000276053E703B0BDE8F08F0000002A08BFBE
:1019A000090481617047000042F2D850C2F2000081
:1019B0000068704740F2040042F2D851C2F20000C1
:1019C000C2F2000100780A68104408607047000005
:1019D00080B543F60040C4F20200016841F4007192
:1019E0000160016841F480610160016841F4807127
:1019F0000160032000F086F80F2000F005F800F0E9
:101A000027F8002080BD000070B540F20406C2F245
:101A1000000640F298013278C2F200014FF47A7366
:101A20000968B3FBF2F20446B1FBF2F1084600F09C
:101A3000D1FB0F2C4FF0010508D838B94FF0FF301B
:101A400021460022002500F031F87460284670BD60
:101A500082B0002043F640010190C4F202014A68BE
:101A600042F480424A604A6802F480420192019A3C
:101A70000090086840F080500860086800F08050CE
:101A80000090009802B07047002848BF704700F0EF
:101A90001F01012202FA01F11C2202EAD0004EF2DB
:101AA0000012CEF2000281507047000010B54EF6D1
:101AB0000C5CCEF2000CDCF80030C3F3022E8EF08A
:101AC0000704042C28BF0424BEF103034FF0FF3E9B
:101AD0000EFA04F438BF0023A14399400EFA03F331
:101AE0009A43114300F00F0200F160430901043AE8
:101AF00003F564436244002848BF02F10C031970E7
:101B000010BD00004EF60C51CEF200010A684FF6EF
:101B1000FF031A4060F30A2242F0806040F0FD703B
:101B200008607047002804BF012070472DE9F0418C
:101B300043F60808C4F202080446D8F8F8030D4634
:101B400000F00700814207D988F8F853D8F8F80365
:101B500000F00700A84277D12068810717D5410718
:101B600005D5D8F8001041F4E051C8F8001001077D
:101B700005D5D8F8001041F46041C8F80010D8F835
:101B80000010A26821F0F0011143C8F80010C0074E
:101B900040D1D8F8F80300F00700854207D288F852
:101BA000F853D8F8F80300F00700A8424CD1206899
:101BB000410707D5D8F80010E26821F4E05111433D
:101BC000C8F80010000708D5D8F80000216920F4F3
:101BD000604040EAC100C8F8000000F07DF8D8F885
:101BE00000104BF65262C1F30311C0F60002515CC3
:101BF00040F2980220FA01F140F20800C2F200001F
:101C00000068C2F200021160FFF7FEFE0020BDE88E
:101C1000F08100BF6068811E022907D258F8081CB5
:101C200089015CBF0120BDE8F08111E0012807D1E6
:101C300058F8081C89035CBF0120BDE8F08107E06B
:101C400058F8081C890703D40120BDE8F08100BFC3
:101C5000D8F8001021F003010843C8F80000FFF78E
:101C6000A3FE064641F28837D8F80000616800F00C
:101C70000C00B0EB810F8CD0FFF796FE801BB842B2
:101C8000F2D90320BDE8F08140F2980043F6080144
:101C9000C2F20000C4F20201006809684BF66262F9
:101CA000C1F38221C0F60002515CC84070470000B9
:101CB00040F2980043F60801C2F20000C4F20201AB
:101CC000006809684BF66262C1F34231C0F6000257
:101CD000515CC8407047000010B543F60404C4F2DC
:101CE00002046168C1F3810142F20040C0F2F400D5
:101CF000DFE801F002040A0210BD00BF41F200203B
:101D0000C0F27A0010BD00BF216801F03F022168D7
:101D100023684902C3F3881106D4A1FB0001002304
:101D2000FEF74EFA07E000BF41F20020C0F27A0051
:101D30004843B0FBF2F021680222C1F3014102EBFB
:101D40004101B0FBF1F010BD002804BF0120704735
:101D50002DE9F04182B00446007843F60006C00742
:101D6000C4F202060CD0B06800F00C00042840F069
:101D700081803068800303D56068002800F06881A6
:101D8000207880071BD5B06810F00C0F09D0B06820
:101D900000F00C00082840F087807068400200F1D5
:101DA00083803068800703D5E068012840F05081C7
:101DB0003068216920F0F80040EAC10030602078E6
:101DC000000713D4207840072AD4A569002D00F01D
:101DD0003A81B06800F00C00082840F0A580012D81
:101DE00040F00E81012002B0BDE8F081606900285A
:101DF00000F082800020C4F247200121C0F8801E3C
:101E0000FFF7D2FD054600BF706F8007DAD4FFF7F9
:101E1000CBFD401B0228F7D9032002B0BDE8F081BA
:101E2000306C5FEAC0080AD400200190306C40F0AA
:101E300080503064306C00F080500190019847F27F
:101E40000007C4F200073868C00547D4386840F47A
:101E500080703860FFF7A8FD054600BF3868C005F0
:101E60003CD4FFF7A1FD401B0228F7D9032002B0A4
:101E7000BDE8F081B06800F00C00082803D170685C
:101E800040023FF576AF61683068B1F5803F07D01A
:101E9000B1F5A02F40F09A8040F480203060306887
:101EA00040F4803030609AE0E068002840F20000A2
:101EB000C4F247205CD001210160FFF775FD0546A3
:101EC000306880073FF574AFFFF76EFD401B0228B6
:101ED000F6D9032002B0BDE8F08100BFA168306FE1
:101EE000012905D0052955D140F004003067306F35
:101EF00040F00100306756E00020C4F24720002186
:101F0000C0F8801EFFF750FD054600BF706F8007C8
:101F10007FF558AFFFF748FD401B0228F6D9032094
:101F200002B0BDE8F08100BF0027C4F247270020BF
:101F30003866FFF739FD022D05460DD13068800166
:101F400040F18A80FFF730FD401B02284FF003006C
:101F5000F4D902B0BDE8F0813068800173D5FFF795
:101F600023FD401B02284FF00300F5D9F1E700BF25
:101F700000210160FFF718FD054600BF30688007AB
:101F80007FF51DAFFFF710FD401B02284FF0030047
:101F9000F4D9DEE720F001003067306F002920F02F
:101FA000040030677AD0FFF7FFFC054641F288371E
:101FB000306F800700F18480FFF7F6FC401BB842C9
:101FC000F6D9032002B0BDE8F08100BF20F48030D4
:101FD00030603068002920F4802030607AD0FFF72C
:101FE000E3FC0546306880033FF5CAAEFFF7DCFC32
:101FF000401B6428F6D9032002B0BDE8F08100BF81
:102000007068E16900F480028A4221D1216A00F0FF
:102010003F028A421CD147F6C071626A0140B1EBAF
:10202000821F15D1A16A4FF6FF73C903994300F4CB
:102030004032A1F580318A420AD1E16A00F0706035
:10204000B0EB016F04D1002002B0BDE8F08100BF09
:10205000012002B0BDE8F08104F11C052FCD08433A
:1020600040EA8210D9034FF6FF729143A1F5803107
:1020700040EA05600843706001203866FFF794FC71
:10208000044600BF30688001DDD4FFF78DFC001BE3
:1020900002284FF00300F5D95BE700BFFFF784FC8F
:1020A000054641F2883700BF306F800708D5FFF73B
:1020B0007BFC401BB8424FF00300F5D949E700BF55
:1020C000B8F1000F3FF581AE306C20F080503064E5
:1020D0007BE600BFFFF768FC054600BF3068800361
:1020E0007FF54EAEFFF760FC401B64284FF0030005
:1020F000F4D92EE7002804BF0120704770B50446CC
:1021000090F8490015460E4628B9002084F848008A
:10211000204600F01DF8206804F10801FEF758FD84
:102120002068A2683146FEF797FDD4E90102236BCF
:102130002946FEF725FD2068A16850F8212042F0CD
:10214000010240F82120012084F84900002070BDE0
:10215000B0B586B0002043F630010190C4F2020110
:102160008A6840F6004442F001028A608A68C4F23C
:10217000020402F001020192019A01900A6801AD85
:1021800042F008020A600A6802F008020192019A0D
:102190000190086840F0100008600868012100F014
:1021A0001000019001984CF20370019002200290FF
:1021B000CDE903100C20059020462946FFF71EFBB1
:1021C0004FF68070019004F580602946FFF716FBFA
:1021D00006B0B0BD411E0020B0EB116F1CBF012046
:1021E00070474EF21002CEF2000251604EF62351BB
:1021F000CEF20001F0230B70072190601160704750
:10220000704700007047000090F83C20012A4FF012
:10221000020254D010B580F83D200268D2F804E0E4
:10222000D2F808C00C682EF07003234341F2FF740B
:10223000C4F20004A24253600EDC40F2FF73C4F209
:1022400000039A4216DCB2F1804F2BD040F20043DB
:10225000C4F2000324E000BF40F2FF33C4F20103E4
:102260009A4213DC41F60003C4F200039A4219D0EB
:10227000002313E040F60003C4F200039A4211D099
:1022800040F60043C4F200030AE000BF44F200033A
:10229000C4F201039A4205D040F20043C4F20103A4
:1022A0009A4204D149682CF08003194391600121BE
:1022B000002280F83D1080F83C20BDE81040104618
:1022C00070470000002804BF0120704710B5044685
:1022D00090F83D0028B9002084F83C00204600F02A
:1022E0001FF8022084F83D002068211D01F06CFCDD
:1022F000012084F8460084F83E0084F83F0084F80A
:10230000400084F8410084F8420084F8430084F8D7
:10231000440084F8450084F83D00002010BD000012
:1023200080B586B0006841F2FF71C4F200018842B6
:102330004FF000010591CDE90311CDE9011145DC14
:10234000B0F1804F6ED040F20041C4F200018842EB
:1023500000F0A28040F60001C4F20001884240F083
:10236000B680002043F640010090C4F202010A68E2
:1023700042F004020A600A6802F004020092009A25
:10238000009051F8102C42F0100241F8102C51F836
:10239000101C01F01001009100990121019102210E
:1023A000CDE90210CDE904010020C4F2020000F5DD
:1023B000805001A9FFF722FA1E2000210022FFF71A
:1023C00075FB1E20FFF760FB06B080BD41F60001E3
:1023D000C4F20001884251D040F20041C4F2010130
:1023E000884265D00021C4F2010188426FD10020EB
:1023F000009043F64000C4F202004168002241F020
:10240000010141604068002100F001000090009847
:102410001920FFF74BFB192006B0BDE88040FFF7FD
:1024200033BB00BF002043F640010090C4F202011C
:102430000A6842F001020A600A6802F00102009292
:10244000009A009051F8102C42F0010241F8102C33
:1024500051F8101C01F00101009100992021019117
:102460000221CDE902100490012005900020C4F261
:10247000020001A9FFF7C2F906B080BD002000905C
:1024800043F64000C4F20200016841F040010160DF
:10249000006800F0400018E00020009043F6400083
:1024A000C4F20200016841F00201016000680AE024
:1024B0000020009043F64000C4F20200416841F061
:1024C00002014160406800F002000090009806B0F0
:1024D00080BD000090F83D1001291CBF012070470D
:1024E000022180F83D10006841F2FF71C4F2000142
:1024F00088420DDC40F2FF71C4F20001884215DC15
:10250000B0F1804F2AD040F20041C4F2000123E034
:1025100040F2FF31C4F20101884213DC41F60001B0
:10252000C4F20001884219D0002113E040F60001F6
:10253000C4F20001884211D040F60041C4F200010B
:102540000AE000BF44F20001C4F20101884205D054
:1025500040F20041C4F20101884206D1816801F0D5
:102560000701062904BF00207047016841F00101FE
:10257000016000207047000090F83D1001291CBF49
:1025800001207047022180F83D10006841F2FF727F
:10259000C168C4F20002904241F00101C1600DDC4B
:1025A00040F2FF71C4F20001884215DCB0F1804FA7
:1025B0002AD040F20041C4F2000123E040F2FF3192
:1025C000C4F20101884213DC41F60001C4F20001AB
:1025D000884219D0002113E040F60001C4F2000146
:1025E000884211D040F60041C4F200010AE000BF69
:1025F00044F20001C4F20101884205D040F20041DA
:10260000C4F20101884206D1816801F00701062960
:1026100004BF00207047016841F001010160002003
:102620007047000090F83C20012A4FF002026CD065
:1026300080B580F83D20D0F800C04FF67772DCF806
:10264000083023EA0202CCF808200B684F2B29DC63
:102650001F2B45DD202B46D0302B44D0402B40F0A3
:10266000AF80D1F804E0C968DCF82030DCF8202025
:1026700022F00102CCF82020DCF8182022F0F00231
:1026800042EA011123F00A0242EA0E02CCF81810C5
:10269000CCF82020DCF8081041F0470121F030018F
:1026A00028E000BF6F2B33DDB3F5005F74D0B3F5C6
:1026B000805F21D0702B40F08380D1E901E3C968AD
:1026C000DCF8082043EA0E0322F47F4243EA0121AA
:1026D0001143CCF80810DCF8081041F0770109E04C
:1026E0000BB1102B6CD1DCF8081021F070011943EC
:1026F00041F00701CCF808100022012180F83D10BC
:10270000002180F83C10BDE880401046704700BFB3
:10271000502B21D0602B53D1D1F804E0C968DCF8EC
:102720002030DCF8202022F01002CCF82020DCF849
:10273000182022F4704242EA013123F0A00242EA5A
:102740000E12CCF81810CCF82020DCF8081041F05C
:10275000670121F01001CDE7D1F804E0C968DCF889
:102760002030DCF8202022F00102CCF82020DCF818
:10277000182022F0F00242EA011123F00A0242EA94
:102780000E02CCF81810CCF82020DCF8081041F02C
:10279000570121F02001ADE7D1E901E3C968DCF878
:1027A000082043EA0E0322F47F4243EA0121114349
:1027B000CCF80810DCF8081041F480419AE700BF1B
:1027C00001229AE77047000070B504460068C568AA
:1027D0000669B10716D515F0020113D06FF002019A
:1027E0000161012121778069800703D02046FFF72E
:1027F000E9FF05E0204600F08FF8204600F0CEF912
:1028000000202077700719D515F0040016D0206835
:102810006FF00401016102212177806910F4407F8B
:1028200004D02046FFF7CEFF06E000BF204600F0B0
:1028300073F8204600F0B2F900202077300717D552
:1028400015F0080014D020686FF008010161042120
:102850002177C069800703D02046FFF7B3FF05E06A
:10286000204600F059F8204600F098F90020207723
:10287000F00619D515F0100016D020686FF0100181
:10288000016108212177C06910F4407F04D02046FF
:10289000FFF798FF06E000BF204600F03DF8204615
:1028A00000F07CF900202077F00718BF15F0010038
:1028B00002D1300609D412E020686FF001010161F5
:1028C000204600F0F5F9300609D515F0800006D055
:1028D00020686FF0800101612046FFF791FC7006CF
:1028E00009D515F0400006D020686FF04001016165
:1028F000204600F0DFF9B00658BF70BD15F020008B
:1029000008D021686FF0200220460A61BDE87040BF
:10291000FFF778BC70BD00007047000090F83C30B5
:10292000012B04BF022070474FEAB202032A00F2D3
:10293000FF802DE9F043DFE802F003B13F7F00BFE5
:10294000036840F200461C6A1A6A24F0020422F06E
:1029500001021A621A46D3F804C052F818EF8F68C1
:1029600043F48065C4F20106B54244EA070405D188
:10297000CF6824F00C0427F004073C430F68B542ED
:1029800006D1D1E905582CF440762E4346EA080CCE
:102990002EF073063743C3F804C09F614F6809697E
:1029A0005F631C629F6947F008079F619F6927F07A
:1029B00004079F61B1E000BF036840F200481C6A51
:1029C0001A6A24F4007422F480721A621A46D3F848
:1029D00004C052F81CEF8F6843F48065C4F201080C
:1029E000454544EA072408D1CF6840F2FF463F023C
:1029F00024F4406427EA06063443D1F800904545A4
:102A000006D1D1E905562CF440572E4347EA061C5F
:102A10002EF0730747EA0907C3F804C0DF614F6867
:102A20000969DF631C62DF6947F00807DF61DF695E
:102A300027F00407DF6170E0036840F20045D3F837
:102A400020C01A6A43F4806722F480521A621A4640
:102A50005C6852F81C8FD1F800E08E68C4F2010562
:102A6000AF4204D14D6924F4804444EA85142CF427
:102A7000005747EA063728F4E64646EA0E265C6029
:102A8000DE614E6809691E641F62DF6947F40067F2
:102A9000DF61DF6927F48067DF613DE0036840F2B2
:102AA00000481C6A1A6A24F0200422F010021A62FC
:102AB0001A46D3F804C052F818EF8F6843F48065C3
:102AC000C4F20108454544EA071407D1CF686FF006
:102AD000400624F0C00406EA07163443D1F80090FB
:102AE000454506D1D1E905562CF440672E4347EA07
:102AF000860C2EF4E64747EA0927C3F804C09F6115
:102B00004F6809699F631C629F6947F400679F6172
:102B10009F6927F480679F61090213681943116058
:102B20000021BDE8F043002280F83C2008467047B1
:102B30000121002280F83C2008467047002804BF8D
:102B40000120704710B5044690F83D0028B90020D8
:102B500084F83C00204600F01FF8022084F83D0075
:102B60002068211D01F030F8012084F8460084F827
:102B70003E0084F83F0084F8400084F8410084F867
:102B8000420084F8430084F8440084F8450084F847
:102B90003D00002010BD000070470000704700009D
:102BA000C1B1042908D0082914BF41224022825C07
:102BB000012A05D016E000BF3F22825C012A11D114
:102BC0000222082910D0042914BF80F8412080F87F
:102BD0003F200BE090F83E20012A03D1022280F82A
:102BE0003E2003E00120704780F84020006801F09B
:102BF0001F010122036A02FA01F123EA01020262C3
:102C0000026A114341F2FF72C4F200029042016273
:102C10000CDC40F2FF71C4F20001884214DCB0F118
:102C2000804F37D040F2004116E000BF40F2FF3144
:102C3000C4F20101884215DC41F60001C4F2000132
:102C4000884227D0002115E040F60001C4F20001BF
:102C500088421FD040F60041C4F20001884219D0DA
:102C60001FE000BF44F20001C4F20101884211D00C
:102C700040F20041C4F20101884212D1416C40F29D
:102C8000004340F48062C4F2010341F400419A42DF
:102C9000416406D1816801F00701062904BF0020C4
:102CA0007047016841F00101016000207047000099
:102CB0007047000070470000002804BF01207047E3
:102CC00010B5044690F8410028B9002084F840006F
:102CD000204600F021F8242084F841002068C168D3
:102CE00021F40051C160204601F00CF82068016910
:102CF00021F490410161416921F02A014161C168DB
:102D000041F40051C16000202021606484F841102A
:102D100084F84210606310BD80B586B041F20001B6
:102D20000068C4F20101002288420592CDE9032225
:102D30000292019202D006B080BD00BF43F630007F
:102D40000092C4F20200436943F0100343614369F7
:102D500003F010030093009B0092036843F001030B
:102D60000360006800F00100009000984FF4C0601C
:102D700001900220CDE90202032004900720059073
:102D800001F5704001A9FEF739FD06B080BD0000D5
:102D90002DE9F04381B0044690F84100202809D184
:102DA00000294FF0010018BF002A07D101B0BDE88B
:102DB000F08300BF022001B0BDE8F0830020606412
:102DC00021201D460E4684F841001746FEF7ECFD13
:102DD000A784E784A1688146B1F5805F02D12069AC
:102DE00000285DD037460020E28C2168002A5DD0A3
:102DF0006A1C24D0002D4AD0804600BF0868000617
:102E000008D4FEF7D1FDA0EB0900A8427AD82168CA
:102E1000C868F3E717B117F8010B04E038F8020BA4
:102E200000276FF35F204860E08C0138E084E08C7D
:102E30000028E3D13AE000BF0A68120609D40A6804
:102E4000120606D40A6812065CBF0A685FEA0262CC
:102E5000F2D51FB117F8012B05E000BF30F8022BA7
:102E600000276FF35F224A60E28C013AE284E28C31
:102E7000002AE4D11AE000BF30F8022B00276FF3DC
:102E80005F224A60E28C013AE284E28C72B10A6805
:102E9000120635D5002FEFD017F8012BF1E700BF50
:102EA00000273046E28C2168002AA1D1086840063C
:102EB0001ED42DB3681C14D1086840062AD40868B3
:102EC000400627D40868400624D4086840064FF01E
:102ED0000000F1D50DE000BF2068C1680068400621
:102EE00018D4FEF761FDA0EB0900A842F4D909E06F
:102EF0000020202184F8411001B0BDE8F08300BF1C
:102F0000FEF752FD0320202184F8411001B0BDE8F6
:102F1000F08300BF0020202184F8411001B0BDE8FB
:102F2000F0830000FEE7000010B540F20C04C2F28E
:102F30000004606CB4F848100122FEF72FFD606CAD
:102F4000B4F848100022BDE81040FEF727BD00008D
:102F50002DE9F04387B0002043F630010690CDE91B
:102F60000400CDE902000190C4F202010A6840F6B3
:102F7000000442F001020A600A68C4F2020402F08E
:102F800001020192019A01900A6802AD42F0040226
:102F90000A600A6802F004020192019A01900A682C
:102FA00042F008020A600A6802F008020192019ADF
:102FB0000190086840F0400008600868294600F069
:102FC0004000019001980120CDE903000320059005
:102FD0004FF4806002902046FEF710FC04F58066F6
:102FE0008027304629460297FEF708FC20462946EE
:102FF0000297FEF703FC4FF0400920462946CDF822
:103000000890FEF7FBFB029704F5805738462946E7
:10301000FEF7F4FB4FF40070029020462946FEF7BD
:10302000EDFB4FF48078A4F500602946CDF80880C8
:10303000FEF7E4FB0420029030462946FEF7DEFB53
:1030400030462946CDF80890FEF7D8FB4FF40040F3
:10305000029038462946FEF7D1FB4FF400600290FB
:1030600020462946FEF7CAFB4FF4805002902046C6
:103070002946FEF7C3FB20462946CDF80880FEF717
:10308000BDFB40F20C04C2F20004606A218D0022F4
:10309000FEF784FCE06BB4F840100122FEF77EFCE2
:1030A000606B218F0022FEF779FC606CB4F8481049
:1030B0000022FEF773FCE06CB4F850100022FEF71B
:1030C0006DFC606DB4F858100022FEF767FCE06DEF
:1030D000B4F860100022FEF761FC606EB4F868106E
:1030E0000022FEF75BFC606821890022FEF756FC97
:1030F000E068218A0022FEF751FC6069218B0022E2
:10310000FEF74CFCE069218C0022FEF747FC07B07B
:10311000BDE8F083000000002DE9F04F81B0FFF71B
:1031200017FF40F20C04C2F20004E06A218E002274
:10313000FEF734FCE06A218E0122FEF72FFCE06AE4
:10314000218E0022FEF72AFCBDA2012003210123CB
:1031500000F04EFEBBA203200321012300F048FE35
:1031600040F21416C2F20006B089C1082C2988BFAB
:103170000020FDF7AEF99FEDAE0B57EC105B2A4631
:103180003B46FDF719F9FDF7B1F940BA04F1030820
:10319000ADF80000002001214246002300F028FE87
:1031A0006A4605200221012300F022FE3088C10872
:1031B0002C2988BF0020FDF78CF92A463B46FDF7F5
:1031C000FBF8FDF793F940BAADF8000000200121AB
:1031D0002246002300F00CFE6A460520022101234E
:1031E00000F006FEB088C1082C2988BF0020FDF73A
:1031F00070F92A463B46FDF7DFF8FDF777F940BA4C
:1032000004F10109ADF80000002001214A46002325
:1032100000F0EEFD6A4605200221012300F0E8FDE2
:103220003089C1082C2988BF0020FDF752F92A46B1
:103230003B46FDF7C1F8FDF759F940BA04F1020B1E
:10324000ADF80000002001215A46002300F0D0FD17
:103250006A4605200221012300F0CAFDE06E49F60E
:10326000FF27CEF23227C11907F1010A514538BFB5
:103270004FF47A70FDF72DF99FED6F0B55EC106B45
:1032800032462B46FDF798F8FDF74FF900BA00904B
:10329000002001212246002300F0AAFD6A460420F6
:1032A0000421012300F0A4FD206FC119514538BF4E
:1032B0004FF47A70FDF70DF932462B46FDF77CF896
:1032C000FDF733F900BA0090002001214A4600239F
:1032D00000F08EFD6A4604200421012300F088FDE1
:1032E000606FC119514538BF4FF47A70FDF7F1F89E
:1032F00032462B46FDF760F8FDF717F900BA00904B
:10330000002001215A46002300F072FD6A46042085
:103310000421012300F06CFDA06FC119514538BF95
:103320004FF47A70FDF7D5F832462B46FDF744F896
:10333000FDF7FBF800BA009000200121424600236F
:1033400000F056FD6A4604200421012300F050FDE0
:1033500040F28805C2F20005A8890021B1EB902F48
:1033600018BF722010268DF8020046EA10208DF852
:1033700001008DF8001000200121424600230027A3
:1033800000F036FD6A4606200321012300F030FDDF
:1033900028880121B7EB902F18BF72208DF802000A
:1033A00046EA10208DF801000020224600238DF807
:1033B000007000F01DFD6A4606200321012300F085
:1033C00017FDA8880021B1EB902F18BF72208DF84F
:1033D000020046EA10208DF801008DF80010002050
:1033E00001214A460023002400F002FD6A4606201F
:1033F0000321012300F0FCFC28890121B4EB902F6C
:1034000018BF72208DF8020046EA10208DF80100E6
:1034100000205A4600238DF8004000F0E9FC6A467F
:1034200006200321012300F0E3FC01B0BDE8F08F8A
:10343000000000000080963F95D626E80B2E314014
:10344000AB00000000030000B0B584B041F22820BA
:10345000C2F2000042F200014FF080534FF00065CD
:103460000024C4F20101C0E90A53012503944FF47A
:103470008032047680F82040C56180F8305080E8C2
:103480001600C0E903444561FDF7A8FC002818BFF9
:10349000FDF772FB41F22820C2F200006946CDE937
:1034A00000550294FDF7F6FB002818BFFDF764FBFA
:1034B00004B0B0BDB0B584B041F2702042F200114A
:1034C00001230024C2F20000C4F20101C0F600731F
:1034D000012503944FF48032047680F82040C0E93F
:1034E0000A34C56180F8304080E81600C0E9034422
:1034F0004561FDF773FC002818BFFDF73DFB0C206C
:10350000CDE9000541F27020C2F200006946029444
:10351000FDF7C0FB002818BFFDF72EFB04B0B0BDBF
:10352000B0B584B041F2B820C2F2000042F20021EE
:103530004FF080534FF060650024C4F20101C0E9F0
:103540000A53012503944FF48032047680F820401A
:10355000C56180F8305080E81600C0E90344456139
:10356000FDF73CFC002818BFFDF706FB0220CDE963
:10357000000541F2B820C2F2000069460294FDF74E
:1035800089FB002818BFFDF7F7FA04B0B0BD0000B2
:1035900080B582B0002001903C20009041F20030C4
:1035A00047F20041C2F20000C4F200010160FDF7E1
:1035B00091FE002818BFFDF7DFFA41F20030C2F299
:1035C000000069460022FDF755FE002818BFFDF7F0
:1035D000D3FA02B080BD000080B582B00020019017
:1035E00043F63000C4F202000168002241F4800179
:1035F00001600068002100F48000019001983820EB
:10360000FEF754FA3820FEF73FFA39200021002255
:10361000FEF74CFA392002B0BDE88040FEF734BA1C
:1036200070B586B0002643F630000596CDE90366F6
:10363000CDE901660096C4F20200016841F600047B
:1036400041F0800101600168C4F2020401F08001D0
:103650000091009900960168002241F00401016088
:103660000168142501F00401009100990096016899
:1036700041F001010160016801F001010091009930
:103680000096016841F002010160016801F0020149
:10369000009100990096016841F0400101600168C5
:1036A00001F04001009100990096016841F010017D
:1036B00001600068142100F010000090009820467E
:1036C000FEF76CF901200195CDE90206032001AD5A
:1036D000049020462946FEF791F82820CDE90106FE
:1036E000A4F5A05029460396FEF788F806B070BDF1
:1036F000B0B592B041F6000541F21C40C4F200059D
:103700000021C2F200004F2213230B91CDE90911D1
:103710000791CDE90511CDE90311CDE90111C0E90A
:103720000052C0E9021301618161FEF7CBFD002860
:1037300018BFFDF721FA4FF48050089041F21C4069
:10374000C2F2000008A9FEF76DFF002818BFFDF7C0
:1037500013FA41F21C40C2F20000FFF7EFF9002813
:1037600018BFFDF709FA602001900920029041F28C
:103770001C400024C2F2000001A900220394059419
:10378000FFF7CCF8002818BFFDF7F6F9029441F2D4
:103790001C44C2F2000401A920460422FFF7BEF82F
:1037A000002818BFFDF7E8F921680020A942119010
:1037B000CDE90F000E900D9002D012B0B0BD00BF49
:1037C00043F630010C90C4F202010A6842F0020292
:1037D0000A60096801F002010C910C994FF4404114
:1037E0000D910221CDE90E1010900920119005F5E0
:1037F000F6300DA9FEF702F812B0B0BD80B586B064
:1038000041F2D43000220021C2F20000C4F20102D1
:1038100043F67F6342F20F7C4FF0800E0591CDE9B5
:103820000311CDE90011C0E90023C0E9021CC0E981
:103830000411C0F818E0FEF745FD002818BFFDF799
:103840009BF94FF48050029041F2D430C2F2000054
:1038500002A9FEF7E7FE002818BFFDF78DF941F237
:10386000D430C2F200006946FEF7CEFC002818BF33
:10387000FDF782F906B080BD10B586B041F2644014
:103880000024C2F200004FF080414FF0FF32CDE93A
:103890000044C0E90014C0E9024204618461FEF7FB
:1038A00011FD002818BFFDF767F94FF40050CDE96E
:1038B000020441F26440C2F2000002A9CDE90444CE
:1038C000FEF7B0FE002818BFFDF756F90020CDE93D
:1038D000000041F26440C2F200006946FEF794FC29
:1038E000002818BFFDF748F906B010BD80B586B0B6
:1038F0002020009041F2AC4040F200420021C2F290
:103900000000C4F200024F230591CDE9031101919B
:10391000C0E90021C0E90213016180218161FEF745
:10392000D1FC002818BFFDF727F94FF48050029012
:1039300041F2AC40C2F2000002A9FEF773FE00287B
:1039400018BFFDF719F941F2AC40C2F20000694618
:10395000FEF75AFC002818BFFDF70EF906B080BD2F
:1039600010B586B041F2F44040F600010024C2F2E6
:103970000000C4F200014FF6FF72CDE90044C0E937
:103980000014C0E9024204618461FEF79BFC002838
:1039900018BFFDF7F1F84FF40050CDE9020441F2F1
:1039A000F440C2F2000002A9CDE90444FEF73AFE59
:1039B000002818BFFDF7E0F80020CDE9000041F233
:1039C000F440C2F200006946FEF71EFC002818BF52
:1039D000FDF7D2F806B010BD80B586B0202000906B
:1039E00041F23C5040F200420021C2F20000C4F219
:1039F00001029F234FF0800C0591CDE90311019145
:103A0000C0E90021C0E90213C0E90411C0F818C0E0
:103A1000FEF758FC002818BFFDF7AEF84FF48050B1
:103A2000029041F23C50C2F2000002A9FEF7FAFDFA
:103A3000002818BFFDF7A0F841F23C50C2F2000088
:103A40006946FEF7E1FB002818BFFDF795F806B0C0
:103A500080BD000080B541F2845041F20001C2F205
:103A60000000C4F2010100234FF00C0C4FF4E132CE
:103A700080E80E00C0E90333C0E905C3C361FFF766
:103A80001BF9002808BF80BDBDE88040FDF774B871
:103A9000FEE70000FEE700007047000070470000EE
:103AA000FDF788BF70B592B006AC20463021FCF718
:103AB000D1FB002543F640000595CDE90355CDE93E
:103AC00001550095C4F202000168022641F08051C0
:103AD0000160006800F080500090009847F20000FC
:103AE0000095C4F20000016841F480410160006863
:103AF000A02100F4804000900098012006904FF42F
:103B0000803007904FF480000D9004200E901190AB
:103B100020460C96CDE90F16FEF716F910B172B6D5
:103B2000FEE700BF0F20CDE901064FF4A05004903E
:103B30004FF48050059001A805210395FDF7F2FF91
:103B400010B172B6FEE700BF12B070BD4EF68850DD
:103B5000CEF20000016841F470010160704700007E
:103B60002420C4F20000016842F2CC52C2F20002EA
:103B70001160116842F2D052C2F2000211600021BD
:103B80000160D0F8002842F2D453C2F200031A8038
:103B9000C0F8001842F2D65241F2D430C2F200020C
:103BA000C2F200001180FEF70FBE000042F2D651B3
:103BB000C2F200010888421C41F2F440C2F2000047
:103BC0000A80FEF701BE0000B0B540F6FF3E056872
:103BD000C4F2000E40F2004C7045C4F2010C25DC2A
:103BE000B0F1804F2FD040F20043C4F2000398425E
:103BF00029D040F60003C4F20003984223D041F6D6
:103C0000FF73C4F20003984228DC70453ADCB0F13F
:103C1000804F5BD040F20043C4F20003984255D07D
:103C200040F60003C4F200034EE000BF40F600433C
:103C3000C4F20003984206D0604504D00023C4F2C9
:103C400001039842DBD14B6825F0700243EA02057C
:103C500041F6FF73C4F200039842D6DD43F6FF73CA
:103C6000C4F2010398421FDC42F20003C4F20003D5
:103C700098422BD00023C4F20103984226D060451D
:103C800024D028E040F60043C4F2000398421DD03F
:103C900041F60003C4F20003984217D041F60043F6
:103CA000C4F2000310E000BF44F20003C4F20103B9
:103CB00098420BD044F60003C4F20103984205D0A9
:103CC00044F20043C4F20103984204D1CB6825F4C6
:103CD000407243EA02050A688C684B69C46240F48A
:103CE00080648262644504BF09690163026825F04B
:103CF000800142F004021943026001224261016026
:103D0000B0BD0000B0B50446006804F108030ECB56
:103D10000569194325F440552A4302616269E36944
:103D20001143C268194349F20C639A431143C160BD
:103D30004169A26921F4407141F20043114340F40A
:103D40008062C4F201039A42416103D1FDF7B0FFE2
:103D500002E000BFFDF798FFE1694FF69C756368CC
:103D60001922C0F6FF75B1F5004FA0FB02011FD16B
:103D70005A00DB0FFCF724FA48F21F51C5F2EB1191
:103D8000A0FB01235A0905F1805302FB03003223F3
:103D900003EBC000A0FB01014FF4F87000EA111022
:103DA00000EB0210C1F34211084421688860B0BDE5
:103DB0009A009B0FFCF704FA48F21F51C5F2EB1171
:103DC000A0FB01235A0902FB0500322303EB00107C
:103DD000A0FB0101F02000EA511000EB0210C1F33A
:103DE0004311084421688860B0BD0000FEE7000070
:103DF0002DE9F04140F20C04C2F200041646626B59
:103E00000D46218F0746104600229846FDF7C6FD55
:103E1000E06BB4F840100022FDF7C0FD606B218F0D
:103E20000022FDF7BBFD60682189FA09FDF7B6FDA8
:103E3000606B218F0122FDF7B1FD606B218F0022A5
:103E4000FDF7ACFD60682189C7F38012FDF7A6FD80
:103E5000606B218F0122FDF7A1FD606B218F002295
:103E6000FDF79CFD60682189C7F34012FDF796FDC0
:103E7000606B218F0122FDF791FD606B218F002285
:103E8000FDF78CFD60682189C7F30012FDF786FD00
:103E9000606B218F0122FDF781FD606B218F002275
:103EA000FDF77CFD60682189C7F3C002FDF776FD50
:103EB000606B218F0122FDF771FD606B218F002265
:103EC000FDF76CFD60682189C7F38002FDF766FD90
:103ED000606B218F0122FDF761FD606B218F002255
:103EE000FDF75CFD60682189C7F34002FDF756FDD0
:103EF000606B218F0122FDF751FD606B218F002245
:103F0000FDF74CFD6068218907F00102FDF746FDD1
:103F1000606B218F0122FDF741FD606B218F002234
:103F2000FDF73CFD002D00F08A80013E606B218F83
:103F300016F8017F0022FDF731FD60682189FA093A
:103F4000FDF72CFD606B218F0122FDF727FD606BD3
:103F5000218F0022FDF722FD60682189C7F38012BE
:103F6000FDF71CFD606B218F0122FDF717FD606BD3
:103F7000218F0022FDF712FD60682189C7F34012EE
:103F8000FDF70CFD606B218F0122FDF707FD606BD3
:103F9000218F0022FDF702FD60682189C7F300121E
:103FA000FDF7FCFC606B218F0122FDF7F7FC606BD5
:103FB000218F0022FDF7F2FC60682189C7F3C0025F
:103FC000FDF7ECFC606B218F0122FDF7E7FC606BD5
:103FD000218F0022FDF7E2FC60682189C7F380028F
:103FE000FDF7DCFC606B218F0122FDF7D7FC606BD5
:103FF000218F0022FDF7D2FC60682189C7F34002BF
:10400000FDF7CCFC606B218F0122FDF7C7FC606BD4
:10401000218F0022FDF7C2FC6068218907F00102B0
:10402000FDF7BCFC606B218F0122FDF7B7FC606BD4
:10403000218F0022FDF7B2FC013D7FF477AFB8F18C
:10404000010F0BD1606CB4F848100122FDF7A6FCFB
:10405000606CB4F848100022FDF7A0FCE06BB4F8E7
:1040600040100122BDE8F041FDF798BC002B4FF055
:10407000000C59D0F0B5069F00247A434DF68367B3
:10408000C4F21B37A2FB07274FEA974E059A01EEB1
:1040900010EAB8EE411A002617E000BFADB202EEFA
:1040A000105AB8EE422A82EE012A00251FFA8CF639
:1040B0000CF1010CB4EE402AF1EE10FAC8BF012554
:1040C0008D55A5B2AB4226462CD97444B7B2002513
:1040D000BC42E3D930F81770974206F10107BFB22E
:1040E00088BF0135BC42D9D930F81770974206F124
:1040F0000207BFB288BF0135BC42CFD930F8177074
:10410000974206F10307BFB288BF0135BC42C5D94B
:1041100030F817700436974288BF0135B7B2BC42F9
:10412000D8D8BBE7BDE8F0401FFA8CF0704700001C
:104130002DE9F04F002B4FF6FF7918BF002903D16E
:104140001FFA89F0BDE8F08F0028F9D0002AF7D0D7
:10415000DDF824E0AEF10104A4B29C4228BF9E46E3
:10416000B1EB0308ECD4A3EB0E014FF000091FFAEA
:1041700081FA00BF10FA89F60027194614464FF05D
:10418000000B03E00BF1010B013909D016F8015BBC
:1041900014F801CB6545F5D00137BDB25545F3D9CB
:1041A0001FFA8BF17145CBD209F101091FFA89F190
:1041B0008845DFDA4FF6FF791FFA89F0BDE8F08F06
:1041C00010B582B004468DF8070041F28450C2F267
:1041D00000000DF1070101220223FEF7D9FD204660
:1041E00002B010BDF0B581B040F2B007C2F20007D6
:1041F0000446B888F988802501FB00F600200021DC
:10420000C6F6004506F070FDB88925F8020C9EB18F
:10421000042E06F0030007D326F0030104392C8096
:104220002C802C802C80F9D130B101282C8003D037
:1042300002282C8018BF2C8001B0F0BD40F2B001E4
:10424000C2F20001887218B30B8940F2401041F6A7
:104250006312C0F2F000934248602FD049F6060086
:1042600083422BD045F21050834233D142F60040B6
:10427000C2F60020C8604FF42C5008824FF4F07C46
:104280004FF448728A80A1F806C0002006F0ACBB4B
:104290000B89F02041F66312C0F24010934248604F
:1042A0002ED045F2105083423AD142F60040C2F679
:1042B0000020C8604FF42C5027E000BF2C20C0F233
:1042C0002A00C8602B20088240F22030C0F2E010A3
:1042D000486005E02C20C0F22A00C8602B2008822C
:1042E00047F296704FF4A07C83424FF4F07211D0E5
:1042F00045F2103083420DD0002006F075BB00BFA0
:104300002C20C0F22B00C8602A2008824FF4487C81
:104310004FF4F0728A80A1F806C0002006F064BB5A
:104320002C20C0F22A0045F21032C8602B204FF436
:10433000F07C93424FF4A0720882EBD047F2967063
:104340008342E7D049F606008342D5D1DEE700007C
:10435000002A08BF70472DE9F04F81B0824640F235
:10436000B000C2F20000808882453DD840F2B00023
:10437000C2F20000C0888846814235D88027501E8E
:104380001C46C6F6004702F0030522F003061FFA9A
:1043900080FBC14606E000BF09F101091FFA89F060
:1043A000404521D81FFA89F1504606F09DFC40F2A5
:1043B000B000C2F200008089BBF1030F27F8020CA5
:1043C00008D30020043081B2B1423C803C803C8064
:1043D0003C80F7D1002DDFD0012D3C80DCD0022DB8
:1043E0003C8018BF3C80D7E701B0BDE8F04F704774
:1043F0002DE9F04F83B004460D46111AB2EB040BC1
:1044000018BF4FF0FF3B00290F4648BF4F4201291C
:10441000A3EB05004FF00108A8BFC346591B18BF06
:104420004FF0FF310028029044BF4242029201281F
:10443000B8BF884602984FF0000A874288BF3846C6
:104440000190013000264FF000090090A0B2A9B2FF
:1044500006F04AFC40F2B000C2F200007E228089E1
:10446000C6F6004210800299019BF0195144C61A09
:10447000D4BF06465C44B1EB030AD4BF8A46454428
:1044800009F1010900991FFA89F081420C985080C6
:10449000DCD203B0BDE8F08F002A08BF70472DE9D9
:1044A000F04381B040F2B008C2F200080646B8F806
:1044B000040086421BD8B8F806000D46814216D883
:1044C000A818013887B2BD4211D87E249946C6F695
:1044D000004400BFA9B2304606F006FCB8F80C0054
:1044E00001352080A8B2B842A4F80290F2D901B0F8
:1044F000BDE8F04370470000F0B581B0CF20ADF8C3
:104500000200BDF802008024ADF80200BDF80200F0
:10451000C6F6004424F8020C0020ADF80200BDF8F5
:104520000210C122ADF80210BDF802104FF0100CBD
:104530002180ADF80220BDF802104FF0010EADF859
:104540000210BDF802102A2721803021ADF8021098
:10455000BDF80230ADF80230BDF802302380ED2303
:10456000ADF80230BDF80230ADF80230BDF80230CF
:1045700024F8023C6423ADF80230BDF80230ADF8F7
:104580000230BDF8023023800323ADF80230BDF8BD
:104590000230ADF80230BDF8023023801223ADF8AE
:1045A0000230BDF80230ADF80230BDF80230238091
:1045B0008123ADF80230BDF80230ADF80230BDF80D
:1045C00002302380E823ADF80230BDF80230ADF8A8
:1045D0000230BDF8023024F8023C8523ADF80230E9
:1045E000BDF80230ADF80230BDF802302380ADF8DE
:1045F00002C0BDF80230ADF80230BDF802302380B1
:104600007A23ADF80230BDF80230ADF80230BDF8C3
:1046100002302380CB23ADF80230BDF80230ADF874
:104620000230BDF8023024F8023C3923ADF80230E4
:10463000BDF80230ADF80230BDF8023023802C23E3
:10464000ADF80230BDF80230ADF80230BDF80230EE
:104650002380ADF80200BDF80230ADF80230BDF89D
:10466000023023803423ADF80230BDF80230ADF8BB
:104670000230BDF8023023800223ADF80230BDF8CD
:104680000230ADF80230BDF802302380F723ADF8D8
:104690000230BDF80230ADF80230BDF8023024F827
:1046A000023C2023ADF80230BDF80230ADF80230F4
:1046B000BDF802302380EA23ADF80230BDF80230A5
:1046C000ADF80230BDF8023024F8023CADF802002B
:1046D000BDF80230ADF80230BDF802302380ADF8ED
:1046E0000200BDF80230ADF80230BDF80230238080
:1046F000C023ADF80230BDF80230ADF80230BDF88D
:10470000023024F8023C1B23ADF80230BDF8023021
:10471000ADF80230BDF802302380ADF80220BDF8BC
:104720000220ADF80220BDF8022024F8022CADF8DA
:1047300002E0BDF80220ADF80220BDF80220228080
:10474000C522ADF80220BDF80220ADF80220BDF868
:10475000022024F8022CADF80210BDF80220ADF8BA
:104760000220BDF802202280ADF80210BDF8021030
:104770000A22ADF80210BDF802102180C721ADF861
:104780000210BDF80210ADF80210BDF8021024F8B6
:10479000021CB721ADF80210BDF80210ADF80210EE
:1047A000BDF8021021803621ADF80210BDF80210CC
:1047B000ADF80210BDF8021024F8021C4821ADF833
:1047C0000210BDF80210ADF80210BDF802102180F1
:1047D0003A21ADF80210BDF80210ADF80210BDF894
:1047E000021024F8021C5521ADF80210BDF8021089
:1047F000ADF80210BDF802102180B121ADF8021011
:10480000BDF80210ADF80210BDF8021024F8021C29
:10481000ADF80200BDF80210ADF80210BDF80210AC
:1048200021801A21ADF80210BDF80210ADF8021077
:10483000BDF802102180B621ADF80210BDF80210BB
:10484000ADF80210BDF8021024F8021CADF80220E9
:10485000BDF80210ADF80210BDF802102180A221AF
:10486000ADF80210BDF80210ADF80210BDF802104C
:104870002180F221ADF80210BDF80210ADF802104F
:10488000BDF8021024F8021CADF80200BDF80210B9
:10489000ADF80210BDF8021021802621ADF80210FB
:1048A000BDF80210ADF80210BDF8021024F8021C89
:1048B000ADF802E0BDF80210ADF80210BDF802102C
:1048C0002180E021ADF80210BDF80210ADF8021011
:1048D000BDF8021024F8021C0F21ADF80210BDF83B
:1048E0000230ADF80230BDF802302380ADF802701E
:1048F000BDF80230ADF80230BDF802302380282325
:10490000ADF80230BDF80230ADF80230BDF802302B
:1049100023800823ADF80230BDF80250ADF80250F4
:10492000BDF8025025800E25ADF80250BDF80250AA
:10493000ADF80250BDF802502580ADF80230BDF848
:1049400002302B25ADF80230BDF80230238054230D
:10495000ADF80230BDF80230ADF80230BDF80230DB
:104960002380A923ADF80230BDF80230ADF8023043
:10497000BDF8023023804323ADF80230BDF8023089
:10498000ADF80230BDF802302380ADF80220BDF84A
:104990000220ADF80220BDF802202280ADF80210FE
:1049A000BDF80220ADF80220BDF802202280ADF84B
:1049B0000200BDF80220ADF80220BDF802202280DE
:1049C000ADF80200BDF80220ADF80220BDF80220CB
:1049D0002280ADF80200BDF80220ADF80220BDF83B
:1049E00002202280ADF80200BDF80220ADF80220BE
:1049F000BDF802202280E122ADF80220BDF802209D
:104A0000ADF80220BDF8022024F8022CADF8020017
:104A1000BDF80220ADF80220BDF802202280152248
:104A2000ADF80220BDF80220ADF80220BDF802204A
:104A300022801722ADF80220BDF80220ADF8022036
:104A4000BDF8022022800722ADF80220BDF8022026
:104A5000ADF80220BDF8022022801122ADF802201C
:104A6000BDF80230ADF80230BDF8023023800623D5
:104A7000ADF80230BDF80230ADF80230BDF80230BA
:104A80002380ADF80250BDF80230ADF80230BDF819
:104A9000023023805623ADF80230BDF80230ADF865
:104AA0000230BDF8023023803C23ADF80230BDF85F
:104AB0000230ADF80230BDF8023023800523ADF896
:104AC0000230BDF80230ADF80230BDF8023023806C
:104AD000ADF802C0BDF80230ADF80230BDF80230CA
:104AE0002380ADF80210BDF80230ADF80230BDF8F9
:104AF000023023803F23ADF80230BDF80260ADF8EC
:104B00000260BDF802602680ADF80230BDF8026098
:104B1000ADF80260BDF802602680ADF80210BDF865
:104B20000210ADF80210BDF802102180ADF802505D
:104B3000BDF80210ADF80210BDF8021024F8021CF6
:104B4000ADF80200BDF80210ADF80210BDF8021079
:104B50002180ADF80200BDF80210ADF80210BDF8DA
:104B600002102180ADF802E0BDF80210ADF802108D
:104B7000BDF802102180ADF80230BDF80210ADF88A
:104B80000210BDF802102180ADF80270BDF80210CD
:104B9000ADF80210BDF8021024F8021CADF80200B6
:104BA000BDF80210ADF80210BDF802102180ADF87A
:104BB0000200BDF80210ADF80210BDF8021021800D
:104BC000ADF80200BDF80200ADF80200BDF8020029
:104BD0002080EF20ADF80200BDF80200ADF8020021
:104BE000BDF802002080ADF80220BDF80200ADF84B
:104BF0000200BDF8020024F8020C7820FCF7EAFD60
:104C00002920ADF80200BDF80200ADF80200BDF8A1
:104C1000020024F8020C01B0F0BD00002DE9F04FB5
:104C200081B0FF23ADF80230BDF802008024ADF85A
:104C30000200BDF80200C6F6004424F8020CADF8EC
:104C40000230BDF802004FF0060EADF80200BDF8CC
:104C500002004FF00F0B20809820ADF80200BDF845
:104C600002004FF00B0AADF80200BDF802004FF051
:104C700010092080ADF802E0BDF802004025ADF833
:104C80000200BDF802004FF00A0C2080BC20ADF8F5
:104C90000200BDF80200ADF80200BDF8020024F8E1
:104CA000020C0120ADF80200BDF80210ADF80210B0
:104CB000BDF802102180ADF802B0BDF80210ADF8C9
:104CC0000210BDF8021021806121ADF80210BDF87C
:104CD0000210ADF80210BDF802102180ADF80230CC
:104CE000BDF80210ADF80210BDF802102180ADF839
:104CF0000200BDF80210ADF80210BDF802102180CC
:104D0000ADF80200BDF80210ADF80210BDF80210B7
:104D10002180ADF802A0BDF80210ADF80210BDF878
:104D200002102180ADF80290BDF80210ADF802101B
:104D3000BDF8021021803721ADF80210BDF8021035
:104D4000ADF80210BDF8021021806321ADF8021009
:104D5000BDF80210ADF80210BDF802102180ADF8C8
:104D60000230BDF80210ADF80210BDF8021021802B
:104D7000ADF80230BDF80210ADF80210BDF8021017
:104D80002180ADF80200BDF80210ADF80210BDF8A8
:104D900002102180ADF80200BDF80210ADF802103B
:104DA000BDF8021021800021ADF80210BDF80220EC
:104DB000ADF80220BDF802202280ADF80210BDF847
:104DC0000220ADF80220BDF802202280ADF80230AA
:104DD000BDF80220ADF80220BDF802202280522248
:104DE000ADF80220BDF80220ADF80220BDF8022087
:104DF0002280ADF80200BDF80220ADF80220BDF817
:104E000002202280ADF80210BDF80220ADF8022089
:104E1000BDF802202280ADF80250BDF80220ADF8A6
:104E20000220BDF802202280BD22ADF80220BDF88C
:104E30000220ADF80220BDF8022024F8022CADF8C3
:104E40000200BDF80220ADF80220BDF80220228049
:104E50002322ADF80220BDF80230ADF80230BDF8D3
:104E6000023023804523ADF80230BDF80260ADF872
:104E70000260BDF8026026806726ADF80260BDF8CA
:104E80000270ADF80270BDF802702780ADF8020024
:104E9000BDF80270ADF80270BDF802702780ADF861
:104EA0000220BDF80220ADF80220BDF802202280C9
:104EB000ADF80230BDF80220ADF80220BDF80220A6
:104EC0002280ADF80260BDF802201326ADF8022062
:104ED000BDF802202280BE22ADF80220BDF80220DB
:104EE000ADF80220BDF8022024F8022CADF8021023
:104EF000BDF80220ADF80220BDF802202280ADF8F6
:104F00000200BDF80220ADF80220BDF80220228088
:104F1000AB22ADF80220BDF80220ADF80220BDF8AA
:104F2000022022806022ADF80220BDF80220ADF8F8
:104F30000220BDF8022022802222ADF80220BDF816
:104F40000230ADF80230BDF802302380ADF8022007
:104F5000BDF80230ADF80230BDF802302380ADF864
:104F60000220BDF80230ADF80230BDF802302380D7
:104F7000ADF80220BDF80230ADF80230BDF80230C5
:104F80002380ADF80220BDF802202023ADF80220D6
:104F9000BDF802202280C722ADF80220BDF8022011
:104FA000ADF80220BDF8022024F8022C3622ADF81C
:104FB0000220BDF80220ADF80220BDF802202280B8
:104FC000ED22ADF80220BDF80220ADF80220BDF8B8
:104FD000022024F8022C7F22ADF80220BDF8022026
:104FE000ADF80220BDF802202280ADF802B0BDF875
:104FF0000220ADF80220BDF802202280C022ADF8C8
:105000000220BDF80220ADF80220BDF8022024F8ED
:10501000022CADF802B0BDF80220ADF80220BDF8B8
:1050200002202280ADF802A0BDF80220ADF80220D7
:10503000BDF802202280ADF802C0BDF80220ADF814
:105040000220BDF802202280FC22ADF80220BDF82B
:105050000220ADF80220BDF8022024F8022C08221C
:10506000ADF80220BDF80220ADF80220BDF8022004
:105070002280DF22ADF80220BDF80220ADF8022028
:10508000BDF8022024F8022CADF80210BDF8022071
:10509000ADF80220BDF802202280ADF80210BDF864
:1050A0000220ADF80220BDF802202280ADF80210E7
:1050B000BDF80220ADF80220BDF802202280ADF834
:1050C0000210BDF80220ADF80220BDF802202280B7
:1050D000ADF80210BDF80220ADF80220BDF80220A4
:1050E0002280ADF80230BDF80220ADF80220BDF8F4
:1050F00002202280F322ADF80220BDF80220ADF894
:105100000220BDF8022024F8022C7422ADF80220FF
:10511000BDF80220ADF80220BDF802202280B422A2
:10512000ADF80220BDF80220ADF80220BDF8022043
:1051300024F8022CADF80210BDF80220ADF80220D0
:10514000BDF802202280ADF80210BDF80220ADF8B3
:105150000220BDF802202280ADF80210BDF8022026
:10516000ADF80220BDF802202280F722ADF802201F
:10517000BDF80220ADF80220BDF8022024F8022C70
:105180008222ADF80220BDF80220ADF80220BDF861
:1051900002202280B122ADF80220BDF80220ADF835
:1051A0000220BDF8022024F8022CADF80210BDF850
:1051B0000220ADF80220BDF802202280ADF8026086
:1051C000BDF80220ADF80220BDF802202280ADF823
:1051D0000260BDF80220ADF80220BDF80220228056
:1051E000F222ADF80220BDF80220ADF80220BDF891
:1051F000022024F8022C8022ADF80220BDF8022003
:10520000ADF80220BDF8022022800422ADF8022071
:10521000BDF80220ADF80220BDF802202280ADF8D2
:105220000250BDF80220ADF80220BDF80220228015
:105230002822ADF80220BDF80220ADF80220BDF80A
:1052400002202280C122ADF80220BDF80220ADF874
:105250000220BDF8022024F8022C1722ADF802200B
:10526000BDF80220ADF80220BDF80220228088227D
:10527000ADF80220BDF80250ADF80250BDF8025062
:105280002580ADF80220BDF802200E25ADF80220E1
:10529000BDF802202280ADF80230BDF80220ADF842
:1052A0000220BDF802202280E022ADF80220BDF8E5
:1052B0000220ADF80220BDF8022024F8022CADF83F
:1052C0000210BDF80220ADF80220BDF802202280B5
:1052D000ADF802C0BDF80220ADF80220BDF80220F2
:1052E00022801222ADF80220BDF80220ADF8022083
:1052F000BDF802202280ADF80290BDF80220ADF882
:105300000220BDF802202280ADF80250BDF8022034
:10531000ADF80220BDF802202280ADF80230BDF8C1
:105320000220ADF80220BDF802202280CC22ADF888
:105330000220BDF80220ADF80220BDF80220228034
:105340000722ADF80220BDF80220ADF80220BDF81A
:1053500002202280ADF802E0BDF80220ADF8022064
:10536000BDF802202280ADF802A0BDF80220ADF801
:105370000220BDF802202280ADF80250BDF80220C4
:10538000ADF80220BDF802202280ADF802B0BDF8D1
:105390000220ADF80220BDF8022022800D22ADF8D7
:1053A0000220BDF80230ADF80230BDF80230238093
:1053B0001523ADF80230BDF80280ADF80280BDF8CB
:1053C00002702780ADF80290BDF80270ADF802704F
:1053D000BDF802702780ADF80210BDF80270ADF87C
:1053E0000270BDF802702780E127ADF80270BDF8A9
:1053F0000270ADF80270BDF8027024F8027CADF8BE
:105400000210BDF80270ADF80270BDF8027027807E
:10541000ADF802A0BDF80270ADF80270BDF80270E0
:105420002780ADF80260BDF80260ADF80260BDF8FB
:1054300002602680ADF80220BDF80220ADF80220FF
:10544000BDF802202280ADF80250BDF80220ADF870
:105450000220BDF8022022801B22ADF80220BDF8F8
:105460000220ADF80220BDF8022022807122ADF8A2
:105470000220BDF80220ADF80220BDF802202280F3
:10548000ADF802E0BDF80220ADF80220BDF8022020
:105490002280ADF802E0BDF80220ADF80220BDF890
:1054A00002202280ADF802C0BDF80220ADF8022033
:1054B000BDF802202280ADF802B0BDF80220ADF8A0
:1054C0000220BDF802202280ADF80250BDF8022073
:1054D000ADF80220BDF802202280ADF802B0BDF880
:1054E0000220ADF80220BDF802202280ADF8023083
:1054F000BDF80220ADF80220BDF8022022800C2267
:10550000ADF80220BDF80220ADF80220BDF802205F
:105510002280ADF80210BDF80220ADF80220BDF8DF
:10552000022022802A22ADF80220BDF80220ADF828
:105530000220BDF8022024F8022CADF80210BDF8BC
:105540000220ADF80220BDF802202280ADF8021042
:10555000BDF80220ADF80220BDF802202280ADF88F
:105560000200BDF80200ADF80200BDF80200208084
:10557000DF20ADF80200BDF80200ADF80200BDF872
:10558000020020802B20ADF80200BDF80200ADF82B
:105590000200BDF8020024F8020CADF80210BDF8BC
:1055A0000200ADF80200BDF802002080ADF8021044
:1055B000BDF80200ADF80200BDF802002080032013
:1055C000ADF80200BDF80200ADF80200BDF802001F
:1055D00020801F20ADF80200BDF80200ADF80200E7
:1055E000BDF8020020803A20ADF80200BDF80200AC
:1055F000ADF80200BDF8020024F8020C5520ADF809
:105600000200BDF80200ADF80200BDF802002080E3
:105610003620ADF80200BDF80200ADF80200BDF87A
:10562000020024F8020CADF80210BDF80200ADF83B
:105630000200BDF8020020801120ADF80200BDF884
:105640000200ADF80200BDF8020024F8020C782038
:10565000FCF7C0F82920ADF80200BDF80200ADF853
:105660000200BDF8020024F8020C1420FCF7B2F886
:105670002C20ADF80200BDF80200ADF80200BDF824
:10568000020024F8020C01B0BDE8F08F2DE9F04FC4
:1056900081B0ED20ADF80200BDF802008024ADF825
:1056A0000200BDF80200C6F6004424F8020C0120F6
:1056B000ADF80200BDF802004FF02109ADF802007C
:1056C000BDF8020001222080FE20ADF80200BDF8E6
:1056D00002000025ADF80200BDF802008B262080F4
:1056E000EE20ADF80200BDF802000223ADF8020082
:1056F000BDF802004FF0200A24F8020CDE20ADF8BD
:105700000200BDF802004FF03C08ADF80200BDF801
:1057100002004FF0360E2080ADF80290BDF8021066
:10572000C420ADF80210BDF802104FF0320B2180FA
:10573000F121ADF80210BDF802104FF02C0CADF8BD
:105740000210BDF8021024F8021CADF80220BDF8CA
:105750000210ADF80210BDF802102180DF21ADF873
:105760000210BDF80210ADF80210BDF8021024F8C6
:10577000021C1021ADF80210BDF80210ADF80210A5
:10578000BDF802102180ADF80200BDF80210C6205D
:10579000ADF80210BDF8021024F8021C8F21ADF8FC
:1057A0000210BDF80210ADF80210BDF80210218001
:1057B000ADF80200BDF80210E220ADF80210BDF80D
:1057C000021024F8021CADF80250BDF80210ADF82A
:1057D0000210BDF802102180ADF80200BDF80210E1
:1057E000ADF80210BDF802102180ADF80200BDF83E
:1057F0000210ADF80210BDF802102180ADF80200D1
:10580000BDF802105D20ADF80210BDF80210218035
:10581000BF21ADF80210BDF80210ADF80210BDF8BE
:10582000021024F8021CAA21ADF80210BDF80210E3
:10583000ADF80210BDF802102180B021ADF80210C1
:10584000BDF80210ADF80210BDF8021024F8021CD9
:105850000D21ADF80210BDF80220ADF80220BDF810
:1058600002202280ADF80250BDF80220ADF80220DF
:10587000BDF802202280ADF80210BDF80210ADF88C
:105880000210BDF802102180ADF80250BDF80210E0
:10589000ADF80210BDF8021021801121ADF8021000
:1058A000BDF80210ADF80210BDF802102180ADF86D
:1058B0000250BDF80210ADF80210BDF802102180B0
:1058C0001921ADF80210BDF80210ADF80210BDF8B4
:1058D00002102180ADF80250BDF80210ADF80210A0
:1058E000BDF802102180ADF80290BDF80210ADF8AD
:1058F0000210BDF802102180ADF80250BDF8021070
:10590000ADF80210BDF8021021802D21ADF8021073
:10591000BDF80210ADF80210BDF802102180ADF8FC
:105920000250BDF80210ADF80210BDF8021021803F
:105930003D21ADF80210BDF80210ADF80210BDF81F
:1059400002102180ADF80250BDF80210ADF802102F
:10595000BDF802102180ADF80200BDF80210ADF8CC
:105960000210BDF802102180ADF80250BDF80210FF
:10597000ADF80210BDF802102180ADF80200BDF8AC
:1059800002108B20ADF80210BDF802102180ADF896
:105990000250BDF80210ADF80210BDF802102180CF
:1059A000B121ADF80210BDF80210ADF80210BDF83B
:1059B000021024F8021C8021ADF80210BDF802107C
:1059C000ADF80210BDF802102180ADF80250BDF80C
:1059D0000210ADF80210BDF802102180ADF80200EF
:1059E000BDF802100220ADF80210BDF802102180AF
:1059F000ADF80250BDF80210ADF80210BDF802106B
:105A000021809621ADF80210BDF80220ADF80220E9
:105A1000BDF802202280ADF80250BDF80220ADF89A
:105A20000220BDF802202280B222ADF80220BDF88B
:105A30000220ADF80220BDF8022024F8022CADF8B7
:105A40000250BDF80220ADF80220BDF802202280ED
:105A5000ADF80250BDF80220ADF80220BDF80220DA
:105A60002280ADF80200BDF80220B320ADF802207C
:105A7000BDF802202280ADF80250BDF80220ADF83A
:105A80000220BDF8022022800322ADF80220BDF8DA
:105A90000270ADF80270BDF802702780ADF80250B8
:105AA000BDF80270ADF80270BDF802702780ADF845
:105AB0000200BDF80270B720ADF80270BDF80270A8
:105AC00024F8027CADF80250BDF80270ADF8027007
:105AD000BDF802702780ADF80250BDF80270ADF835
